:1000000019C028C027C026C025C024C023C023C0D3
:1000100021C020C01FC01EC01DC01CC01BC01AC0F4
:1000200019C018C017C016C015C014C013C012C024
:1000300011C010C011241FBECFEFCDBFDFE3DEBF64
:100040002FE3A0E0BFE301C01D92A230B207E1F7A9
:100050004FD093C0D5CF1F921FB61F9211248F93FC
:100060009F9381E0809353019091080497FD10C005
:100070008093013F84E0809305049BE09A95F1F71B
:10008000809306049F918F911F901FBE1F9018951B
:100090008091080486FD18C084E08093050496E3EF
:1000A0009A95F1F700C0809306048091003F863056
:1000B000D4F01092013F84E08093003F9F918F9194
:1000C0001F901FBE1F9018958091013F8111D2CFC4
:1000D0008091003F8A9581F78CE38093003F82E016
:1000E00080930704C7CF9091013F911599F3E1CF19
:1000F00063E080E690E03BD060E081E690E037D0BE
:1001000084E08093060486E08093010480EC809371
:100110000204809151018111FCCF83E0809347015B
:1001200081E08093520181E78093500185E08093C4
:10013000003F84E08093500086E090E024E020932C
:100140000704E6E6F6E03197F1F700000197B9F70A
:100150002093060478948091500081608093500031
:100160008895809150008E7F80935000F4CFDC0101
:0E01700028ED209334006C930895F894FFCF8F
:00000001FF
